:1000000050C068C09BC275C065C064C063C062C098
:1000100061C097C05FC05EC05DC0E0C05BC05AC039
:1000200059C00600FF0901A101150026FF0075084F
:1000300095010900B20201C00902220001010080FD
:100040001E09040000010300000009210101000154
:100050002216000705810308006412011001000048
:100060000008C016DF05000101020001160355005B
:1000700053004200200047006500690067006500EA
:1000800072001C0373006C006F006D006B006F004A
:10009000770073006B0069002E0065007500040393
:1000A000090411241FBECFEDCDBF10E0A0E6B0E0E3
:1000B000E4E9F7E002C005900D92A836B107D9F740
:1000C00010E0A8E6B0E001C01D92AC39B107E1F73D
:1000D00049D35EC395CF80B5846080BD8BB7806205
:1000E0008BBF8BE986BF82E089BF80BF85E083BF7D
:1000F000089578941F920F920FB60F9211248F9348
:100100009F9380916000882381F08091700090918E
:1001100071000196909371008093700081E080934C
:100120006800D99A8AE08093610080916000809590
:10013000809360009F918F910F900FBE0F901F9042
:10014000189578941F920F920FB60F9211248F93E7
:100150009F9380916100882331F0809161008150EC
:100160008093610001C0D99880916E0090916F00DA
:10017000892B51F080916E0090916F0001979093C0
:100180006F0080936E0014C08091620090916300B4
:1001900090936F0080936E00809170009091710039
:1001A00090936D0080936C0010927100109270001B
:1001B0009F918F910F900FBE0F901F901895D59A19
:1001C00081E28FBD82E08EBD83E887B988E081B986
:1001D0008FEE86B983B1836083B9089578941F92B6
:1001E0000F920FB60F9211242F933F938F939F93EB
:1001F00024B135B180916400909165008217930716
:1002000018F488B583500BC024B135B180916400D7
:10021000909165002817390718F488B58D5F88BD5F
:1002200088B58D3D10F08CED04C088B5843110F494
:1002300084E188BD9F918F913F912F910F900FBEC8
:100240000F901F901895FC0180818076803409F012
:1002500053C089E690E09093810080938000818173
:100260008531B1F1E0F48A3071F1843109F044C094
:10027000838190E0982F88272281822B90936300BE
:100280008093620090936F0080936E0010926D00D7
:1002900010926C0010927100109270002DC08F317E
:1002A00079F08832F1F08E3139F5838190E0982F22
:1002B00088272281822B90936500809364001CC064
:1002C00084B195B109C080916C0090916D0004C01B
:1002D000809162009091630090936A00809369001E
:1002E00009C08091680090E090936A008093690053
:1002F0001092680082E0089580E00895CF93DF9324
:1003000080918200835087FD9EC090917F00209154
:100310007E002D3209F095C0883009F092C0CCE003
:10032000D0E0C91BD109CA57DF4F83EC809372001C
:100330008AE58093670010926B008881807619F0BF
:10034000CE0181DF75C08A8110927B009981911165
:1003500006C010927C002BE730E082E065C095304B
:1003600019F48093830052C0963009F049C09B81F4
:10037000913041F48AE590E0909381008093800071
:1003800082E13AC0923041F488E390E0909381009A
:100390008093800082E230C09330C9F4811108C09C
:1003A0008EE990E0909381008093800084E024C0E7
:1003B000813041F482E890E0909381008093800046
:1003C0008CE11AC08230B9F48CE690E00EC0913214
:1003D00041F48AE490E0909381008093800089E06A
:1003E0000BC0923241F482E290E0909381008093BE
:1003F000800086E101C080E090E490936B0018C01B
:10040000983079F0993031F4809385002BE730E013
:1004100080E00AC081E09A3009F080E02BE730E00C
:1004200003C025E830E081E0309381002093800014
:100430009F81911104C09E81981708F4892F8093A1
:100440006600109282008091670084FF4CC080910A
:1004500066008F3F09F447C0C82F893008F0C8E014
:100460008C1B809366008091720098E889278093A6
:100470007200CC2361F180918000909181002091E5
:100480006B0026FF12C0A3E7B0E022E730E0209522
:100490003095280F391F4C2F4A0FF901EA0FFB1F27
:1004A000E491ED934A13F9CF09C0E3E7F0E0DC01F2
:1004B0002C2F2E0F3D9131932E13FCCF01962FEF51
:1004C0002C0F820F911D90938100809380006C2FE0
:1004D00083E790E02FD0CC5FCC3019F08FEF809382
:1004E0006600C093670084E199B3907C31F4815039
:1004F000D9F71092830010927D00DF91CF9108957B
:100500008BB780618BBF979A0895A82FB92F80E091
:1005100090E041E050EA609530E009C02D918227DB
:100520009795879510F084279527305EC8F36F5F05
:10053000A8F30895EADF8D939D930895CF93CFB7E5
:10054000CF93DF93C395CE9BE9F7CE9B0BC0CE9B99
:1005500009C0CE9B07C0CE9B05C0CE9B03C0CE9BDF
:1005600001C089C06F93C0917F00DD27CA57DF4F5C
:100570002F9365E5CE9B03C02F916F91E6CF0F932C
:100580001F934F9320E040E15F9309B3007C06FB8B
:1005900027F93F9350E03BE039C0107C40642F774F
:1005A000012F5F5F1EC0406819B3107C2F77525037
:1005B0001FC0406409B32F77007CD1F15F5F00C09A
:1005C00023C0406219B32F77107C91F15F5F00C0A8
:1005D00025C0007C1027515012F45D5F00001150BF
:1005E00027952C3F19B3C8F6107C01270150279599
:1005F0002C3FC8F64227499309B3007C10274F735C
:10060000115027952C3FA8F64695469519B3107CB6
:1006100079F00127015027952C3F98F66B5A60F32B
:10062000315009B3B0F600C010E11ABF002717C05F
:100630003B503195C31BD04010E11ABF0881033CE9
:10064000F9F00B34E9F020917D001981110F12139C
:10065000EDCF093651F10D3211F0013E39F700931B
:1006600084003F915F914F911F910F912F916F9156
:10067000CAB7C4FD67CFDF91CF91CFBFCF91189597
:1006800020918400222369F310918200112339F50F
:1006900034303AF13093820020937E0010917F0035
:1006A0003BE0311B30937F001CC000918200013081
:1006B000B4F40AE53091670034FD14C0009367007C
:1006C000C2E7D0E013C0052710E000C000000BBB5C
:1006D0001AC0052710E0221F1DC010E021C04AE506
:1006E00002C032ED432FC4E1D0E032E01AB3106C07
:1006F000DE9A0BB31ABB50EC20E865E320FF052718
:100700000BBB279517951C3FF0F66695B8F7B1F728
:1007100020FF05270BBB279517951C3FD0F6279583
:10072000179517FF052700001C3F0BBBB0F629915A
:100730003A9519F70F7310918300110FC651D040ED
:100740000BBB11F010937D0010E11ABF00641AB3C7
:100750001F73402F4F7354E05A95F1F70BBB1ABB30
:100760004BBB7FCF2EE088E190E00FB6F894A895C0
:1007700081BD0FBE21BDC4DED69A21DDACDCD19A8D
:100780007894D99AC99BFECFD698A895B7DDFDCFAE
:04079000F894FFCF0B
:08079400FF1A70175E03FF5A03
:00000001FF
