:1000000050C068C0C0C275C065C064C063C062C073
:1000100061C098C05FC05EC05DC0E4C05BC05AC034
:1000200059C00600FF0901A101150026FF0075084F
:1000300095010900B20201C00902220001010080FD
:100040001E09040000010300000009210101000154
:100050002216000705810308006412011001000048
:100060000008C016DF05000101020001160355005B
:1000700053004200200047006500690067006500EA
:1000800072001C0373006C006F006D006B006F004A
:10009000770073006B0069002E0065007500040393
:1000A000090411241FBECFEDCDBF10E0A0E6B0E0E3
:1000B000E8EFF7E002C005900D92A836B107D9F736
:1000C00010E0A8E6B0E001C01D92A83AB107E1F740
:1000D0007BD390C395CF80B5846080BD8BB78062A1
:1000E0008BBF8BE986BF82E089BF80BF85E083BF7D
:1000F000089578941F920F920FB60F9211248F9348
:100100009F9380916300882399F080917000909173
:1001100071000196909371008093700081E080934C
:100120006800D99A8AE0809360001092630003C04F
:1001300081E0809363009F918F910F900FBE0F908D
:100140001F90189578941F920F920FB60F9211245A
:100150008F939F9380916000882331F0809160009D
:1001600081508093600001C0D9988091690090917E
:100170006A00892B51F08091690090916A00019783
:1001800090936A008093690014C0809161009091FF
:10019000620090936A008093690080917000909152
:1001A000710090936F0080936E0010927100109216
:1001B00070009F918F910F900FBE0F901F90189518
:1001C000D59A81E28FBD82E08EBD83E887B988E051
:1001D00081B98FEE86B996B183B1836083B9982BCC
:1001E00096B9089578941F920F920FB60F9211242A
:1001F0002F933F938F939F9324B135B180916400E7
:10020000909165008217930718F488B583500BC04E
:1002100024B135B1809164009091650028173907A9
:1002200018F488B58D5F88BD88B58D3D10F08CEDD4
:1002300004C088B5843110F484E188BD9F918F910A
:100240003F912F910F900FBE0F901F901895FC01BA
:1002500080818076803409F04CC08BE690E09093EA
:100260008D0080938C0081818531A9F028F48A303B
:1002700069F08431F1F52CC08F3129F08832A1F07A
:100280008E31B9F51BC084B195B109C080916E0063
:1002900090916F0004C080916100909162009093F2
:1002A0006C0080936B0008C08091680080936B00A5
:1002B00010926C001092680082E00895938180E0B3
:1002C0002281820F911D909365008093640011C07C
:1002D000938180E02281820F911D90936200809330
:1002E0006100109271001092700010926F001092D5
:1002F0006E0080E00895CF93C62F20917D0024FFEB
:1003000007C020917E0038E8232720937E0003C099
:100310002AE520937D00DC01EFE7F0E09C2F9E0FA3
:100320008D918193892F8E1B1816D4F36C2F8FE734
:1003300090E025D1CC5FC0937D00CF910895CF93FD
:10034000DF9380918E00835087FDA3C090918B0036
:1003500020918A002D3209F09AC0883009F097C0A8
:10036000CCE0D0E0C91BD109CE56DF4F83EC80939F
:1003700072008AE58093660010926D008881807615
:1003800019F0CE0164DF7AC09A8110927B008981D6
:10039000811106C010927C002BE730E082E06AC039
:1003A000853019F490938F0062C0863009F049C0FF
:1003B0008B81813041F48AE590E090938D008093A9
:1003C0008C0082E13AC0823041F488E390E090935F
:1003D0008D0080938C0082E230C08330C9F491118B
:1003E00008C08EE990E090938D0080938C0084E0AB
:1003F00024C0913041F482E890E090938D00809386
:100400008C008CE11AC09230B9F48CE690E00EC0FA
:10041000813241F48AE490E090938D0080938C00C7
:1004200089E00BC0823241F482E290E090938D002B
:1004300080938C0086E101C080E090E490936D0091
:100440001DC0883069F0893019F4909391000FC075
:100450008A3049F08B3059F48BE480937E0007C0DA
:1004600021E930E002C02BE730E081E003C02BE758
:1004700030E080E030938D0020938C009F819111BB
:1004800004C09E81981708F4892F8093670010920A
:100490008E008091660084FF45C0809167008F3F89
:1004A00009F440C0C82F893008F0C8E08C1B809345
:1004B00067008091720098E8892780937200CC23AE
:1004C00029F180918C0090918D0020916D0026FF84
:1004D0000BC0FC01A3E7B0E02C2F2A0F34913D9311
:1004E00031962A13FBCF09C0DC01E3E7F0E02C2FA3
:1004F0002E0F3D9131932E13FCCF01962C2F2150BE
:10050000820F911D90938D0080938C006C2F83E758
:1005100090E035D0CC5FCC3019F08FEF809367003E
:10052000C093660084E199B3907C31F48150D9F78F
:1005300010928F0010928900DF91CF9108958BB7B0
:1005400080618BBF979A8BE480937E008AE58093CD
:100550007D000895A82FB92F80E090E041E050EA97
:10056000609530E009C02D9182279795879510F00E
:1005700084279527305EC8F36F5FA8F30895EADFFC
:100580008D939D930895CF93CFB7CF93DF93C3956A
:10059000CE9BE9F7CE9B0BC0CE9B09C0CE9B07C07C
:1005A000CE9B05C0CE9B03C0CE9B01C08BC06F937A
:1005B000C0918B00DD27CE56DF4F2F9365E5CE9B94
:1005C00003C02F916F91E6CF0F931F934F9320E0BD
:1005D00040E15F9309B3007C06FB27F93F9350E0AD
:1005E0003BE039C0107C40642F77012F5F5F1EC055
:1005F000406819B3107C2F7752501FC0406409B374
:100600002F77007CD1F15F5F00C023C0406219B337
:100610002F77107C91F15F5F00C025C0007C102710
:10062000515012F45D5F0000115027952C3F19B313
:10063000C8F6107C0127015027952C3FC8F64227A9
:10064000499309B3007C10274F73115027952C3F15
:10065000A8F64695469519B3107C79F0012701500C
:1006600027952C3F98F66B5A60F3315009B3B0F6DA
:1006700000C010E11ABF002719C03B503195C31BC1
:10068000D04010E11ABF0881033C09F10B34F9F0A6
:10069000209189001981110F1213EDCF4A81441F57
:1006A000093651F10D3211F0013E29F70093900007
:1006B0003F915F914F911F910F912F916F91CAB709
:1006C000C4FD65CFDF91CF91CFBFCF911895209119
:1006D0009000222369F310918E00112391F534309C
:1006E00092F130938E0020938A0010918B003BE0B2
:1006F000311B30938B0027C000918E0001300CF528
:100700000AE54F7049F43091660034FD1DC0009336
:100710006600C2E7D0E01CC030917D0034FD14C0FB
:1007200000937D00CEE7D0E013C0052710E000C0A5
:1007300000000BBB1AC0052710E0221F1DC010E0EF
:1007400021C04AE502C032ED432FC4E1D0E032E0DF
:100750001AB3106CDE9A0BB31ABB50EC20E865E3B9
:1007600020FF05270BBB279517951C3FF0F66695D4
:10077000B8F7B1F720FF05270BBB279517951C3F4E
:10078000D0F62795179517FF052700001C3F0BBBD8
:10079000B0F629913A9519F70F7310918F00110F48
:1007A000C651D0400BBB11F01093890010E11ABF65
:1007B00000641AB31F73402F4F7354E05A95F1F73A
:1007C0000BBB1ABB4BBB74CF2EE088E190E00FB699
:1007D000F894A89581BD0FBE21BDB1DED69AF0DC9C
:1007E0007ADCD19A7894D99AC99BFECFD698A895ED
:0807F000A6DDFDCFF894FFCF58
:0807F8001A7017015E035AFF9D
:00000001FF
